:020000040800F2
:10000000A00A012061030008672F0008C52C000822
:10001000632F0008990D0008053200080000000059
:10002000000000000000000000000000A502000821
:10003000F10E000800000000F90200080D30000871
:100040007B0300087B0300087B0300087B03000898
:100050007B0300087B0300087B0300087B03000888
:100060007B0300087B0300087B0300087B03000878
:100070007B0300087B0300087B0300087B03000868
:100080007B0300087B0300087B0300087B03000858
:100090007B0300087B0300087B0300087B03000848
:1000A0007B0300087B0300087B0300087B03000838
:1000B0007B0300087B0300087B0300087B03000828
:1000C0007B0300087B0300087B0300087B03000818
:1000D0007B0300087B0300087B0300087B03000808
:1000E0007B0300087B0300087B0300087B030008F8
:1000F0007B0300087B0300087B0300087B030008E8
:100100007B0300087B0300087B0300087B030008D7
:100110007B0300087B0300087B0300087B030008C7
:100120007B0300087B0300087B0300087B030008B7
:100130007B0300087B0300087B0300087B030008A7
:100140007B0300087B0300087B0300087B03000897
:100150007B0300087B0300087B0300087B03000887
:100160007B0300087B0300087B0300087B03000877
:100170007B0300087B0300087B03000800000000ED
:100180007B0300087B0300087B0300087B03000857
:100190007B0300087B0300087B0300087B03000847
:1001A0007B0300087B0300087B0300087B03000837
:1001B0007B0300087B0300087B0300087B03000827
:1001C0007B0300087B03000800F002F800F05AF8F7
:1001D0000AA090E8000C82448344AAF10107DA45A2
:1001E00001D100F04FF8AFF2090EBAE80F0013F09A
:1001F000010F18BFFB1A43F001031847A07B000052
:10020000D07B00000A4410F8014B14F00F0508BF22
:1002100010F8015B240908BF10F8014B6D1E05D0D2
:1002200010F8013B6D1E01F8013BF9D1641E03D0AB
:10023000641E01F8015BFBD19142E4D370470000DA
:10024000103A24BF78C878C1FAD8520724BF30C802
:1002500030C144BF04680C607047000000230024D4
:1002600000250026103A28BF78C1FBD8520728BFC6
:1002700030C148BF0B6070471FB503F00FFF1FBDB3
:1002800010B510BD00F0C1F81146FFF7F5FF02F000
:10029000BBFF00F0DFF803B4FFF7F2FF03BC00F090
:1002A000E3F800002B4B19680868B0E8F04F80F3C2
:1002B0000988BFF36F8F4FF0000080F311887047FB
:1002C0000000000006480068006880F3088862B6F5
:1002D00061B6BFF34F8FBFF36F8F00DF00BF00BF6A
:1002E00008ED00E0DFF80C00016841F470010160E6
:1002F000704700BF88ED00E0EFF30980BFF36F8F18
:10030000144B1A681EF0100F08BF20ED108A20E968
:10031000F04F106008B44FF0500072B680F31188AF
:10032000BFF34F8FBFF36F8F62B603F0E9FB4FF05F
:10033000000080F3118808BC19680868B0E8F04F25
:100340001EF0100F08BFB0EC108A80F30988BFF3CD
:100350006F8F704714000120EFF305807047000095
:100360000948804709480047FEE7FEE7FEE7FEE749
:10037000FEE7FEE7FEE7FEE7FEE7FEE70448054985
:10038000054A064B704700006D300008C90100089F
:10039000A0040120A00A0120A0060120A00601203F
:1003A00010B5203AC0F00B80B1E81850203AA0E810
:1003B0001850B1E81850A0E81850BFF4F5AF5FEA44
:1003C000027C24BFB1E81850A0E8185044BF18C9F7
:1003D00018C0BDE810405FEA827C24BF51F8043B9E
:1003E00040F8043B08BF7047D20728BF31F8023BF2
:1003F00048BF11F8012B28BF20F8023B48BF00F886
:10040000012B7047704770477047754600F028F819
:10041000AE4605006946534620F00700854618B0F1
:1004200020B5FFF7ABFFBDE820404FF000064FF0CE
:1004300000074FF000084FF0000B21F00701AC4619
:10044000ACE8C009ACE8C009ACE8C009ACE8C00938
:100450008D4670470446AFF300802046FFF71BFF30
:10046000004870473C04012001491820ABBEFEE75C
:1004700026000200704700007CB5044600F040F9F9
:10048000054600F02DF906460020CDE90004084895
:10049000006800EB800202EBC002064800EB82001D
:1004A0002B463246416A0248006802F00DFC7CBDD2
:1004B00098000120E001012070B504460D46082097
:1004C00007490860C020486105210548C1614FF413
:1004D00080300349C862084601F0A8FA70BD0000E8
:1004E000A80201202DE9F04106460F461446A4F16A
:1004F00020001449096801EB4101134B03EB810112
:100500008968C98848430F49096801EB410103EB39
:10051000810189688988CD1DE91705EB5171C910E2
:10052000084B1B6803EB4303DFF81CC00CEB830391
:100530009B681B6800FB01323946304600F0DAFC4C
:10054000BDE8F08198000120900201202DE9FF5FB5
:1005500004461546984601264FF0000900274FF043
:10056000000AAB4600E07F1C1BF8011B0029FAD1F2
:1005700000F0B6F83D49096801EB41013C4A02EB45
:10058000810189688988B0FBF1FAB8F1010F06D0C2
:10059000B8F1020F15D0B8F1030F22D10FE0AAEB8A
:1005A00007003249096801EB4101314A02EB810140
:1005B00089688988484304EB500086B213E02646D8
:1005C00011E0AAEB07012948006800EB4000284A27
:1005D00002EB800080688088624201FB002086B2C6
:1005E00001E0264600BF00BF012E02DBB6F5004F3A
:1005F00000DB012614E02A7830460199FFF772FFEC
:100600001A48006800EB4000194901EB800080683F
:100610008088304486B26D1C09F101001FFA80F910
:1006200000F05EF81149096801EB4101104A02EB44
:1006300081018968898809FB110080B20B4909682A
:1006400001EB410102EB810189688988884201D36D
:10065000012000E00020297809B1012100E00021FB
:1006600008400028C7D1BDE8FF9F00009800012086
:100670009002012030B503460C461748006800EB95
:10068000800101EBC001154800EB810000690228E0
:1006900010D100F025F804FB003041000E4800683E
:1006A00000EB800505EBC0050C4800EB8500406AB7
:1006B00042520FE000F014F804FB003081000648BD
:1006C000006800EB800505EBC005044800EB8500E1
:1006D000406A425030BD000098000120E001012036
:1006E0000548006800EB800101EBC001034800EB06
:1006F0008100806A7047000098000120E00101201D
:100700000548006800EB800101EBC001034800EBE5
:100710008100C06A7047000098000120E0010120BC
:1007200010B5282125484161092181613521C16128
:100730000B21016240F21B11816240F215214162DE
:1007400040F21D11016340F23521C1620021FFF723
:10075000B3FE4FF4F071194801664FF48871416699
:10076000002180F8341080F8351080F83610002011
:1007700012494860002111488160C1600161104840
:100780000E490860084601F056F818B900210B48D8
:1007900000F066F8094801F053F8012211030948F6
:1007A00000F0E0FF01220821074800F0DBFF00F025
:1007B0006DF9064800F050F9002010BDA801012095
:1007C0000068014000200240002802407000012023
:1007D00030B58DB004460D4600200090FFF780FF35
:1007E000019000200290FFF78BFF039000200490FF
:1007F0000995FF200590002006908DF8300000211B
:100800008DF831108DF832104FF4C060079007203A
:100810000890FFF765FF0A90FFF772FF0B902246E2
:1008200069460C4800F0D8FF4FF0FF3004EB44015C
:10083000094A02EB81014860084804EB440102EBDD
:10084000810188604FF07F4004EB440142F82100B1
:100850000DB030BDA80101209002012070000120E0
:1008600030B587B004460D4600BF002001906A48AD
:10087000006840F08060684908600846006800F041
:100880008060019000BF00BF00BF0020019062485F
:100890001438006840F400005F49143908600846C5
:1008A000006800F40000019000BF00BF00BF0020FE
:1008B00001900846006840F0100008600846006893
:1008C00000F01000019000BF00BF00BF00200190A9
:1008D0000846006840F0400008600846006800F0E4
:1008E0004000019000BF00BF00BF002001900846FB
:1008F000006840F4807008600846006800F480706A
:10090000019000BF00BF00BF0020019008460068B2
:1009100040F4007008600846006800F40070019020
:1009200000BF00BF00BF002001900846006840F4EF
:10093000806008600846006800F48060019000BF95
:1009400000BF00BF002001900846006840F480709E
:1009500008600846006800F48070019000BF00BF86
:1009600000BF002001900846006840F480600860E5
:100970000846006800F48060019000BF00BF1020AE
:1009800002900220039000200490022005900E2087
:10099000069002A9214800F0D7FD4FF48050029044
:1009A000022003900920069002A91D4800F0CCFD0A
:1009B0004FF467400290022003900E20069002A997
:1009C000184800F0C1FD4EF6FF700290022003901F
:1009D0000E20069002A9144800F0B6FDF720029000
:1009E000022003900E20069002A9104800F0ACFDF2
:1009F0004FF4805002900120039002A9094800F0B2
:100A0000A3FD082002900120039002A9074800F0EE
:100A10009BFD07B030BD000044380240001002408A
:100A2000001802400020024000240240002802403A
:100A300001490860704700009800012004490968D6
:100A400001EB4101034A02EB81014860704700005D
:100A500098000120900201200449096801EB41013E
:100A6000034A02EB81018860704700009800012072
:100A7000900201200349096801EB4101024A42F852
:100A800021007047980001209002012010B51E48F7
:100A90001E49086002201E490860072048600420A3
:100AA00088600720C86002200861486188610020D2
:100AB000164948600021154881600421C160102159
:100AC000016140214161890081610021C1614FF4D0
:100AD00000610162490041620021816200F068F812
:100AE0000B490A4802F082F818B101200949087040
:100AF00002E000200749087040F2036000F00CF8A3
:100B00000448007810BD0000400100A02C03012023
:100B1000600301209C00012038B5044600200090AD
:100B200001202149086010204860012088600020D1
:100B3000C8604FF6FF721D4802F08DF8012000F0EA
:100B4000F5FC0220184908601020486001208860E8
:100B50000020C8604FF6FF72144802F07CF80320B2
:100B60001149086010204860082088600020C86093
:100B70004FF6FF720D4802F06EF84FF408700090C7
:100B8000042009490860102048600120886000980E
:100B9000C8604FF6FF72054802F05DF82146034831
:100BA00002F045F838BD00007C0301202C03012031
:100BB00030B587B004460D4600BF002001906D4857
:100BC000006840F001006B4908600846006800F0CA
:100BD0000100019000BF00BF00BF002001906548E8
:100BE0000838006840F48000624908390860084607
:100BF000006800F48000019000BF00BF00BF00202B
:100C000001900846006840F004000860084600684B
:100C100000F00400019000BF00BF00BF0020019061
:100C20000846006840F0080008600846006800F0C8
:100C30000800019000BF00BF00BF002001900846DF
:100C4000006840F0100008600846006800F01000DE
:100C5000019000BF00BF00BF00200190084600685F
:100C600040F0200008600846006800F02000019075
:100C700000BF00BF00BF002001900846006840F0A0
:100C8000400008600846006800F04000019000BF86
:100C900000BF00BF002001900846006840F08000BF
:100CA00008600846006800F08000019000BF00BFA7
:100CB0000220039001200490022005900C20069051
:100CC0000820029002A92C4800F03EFC4CF20B7068
:100CD000029002A9294800F037FC4FF68370029079
:100CE00002A9274800F030FC4FF63F00029002A90D
:100CF000244800F029FC48F23310029002A922484F
:100D000000F022FC2820029002A9204800F01CFCE0
:100D100000201F49486080211D4881608900C16012
:100D20004900016189004161890081610021C1613F
:100D30004FF40031016200214162032181620021F0
:100D4000C162016313481249086000BF084620636E
:100D5000846300BF00F076FB0D4800F0A5FB002285
:100D60000521382000F00FFE382000F0FFFD07B00D
:100D700030BD00003838024000080240000C02403C
:100D8000001002400014024000180240001C024003
:100D90008C0301201064024000BFFEE710B500BFC5
:100DA000BFF34F8FBFF36F8F0020084908600848DA
:100DB000006840F4003006490860BFF34F8FBFF36E
:100DC0006F8F00BF02F0ECF810BD000050EF00E0A4
:100DD00014ED00E02DE9F0470C4616461F46DDF8FD
:100DE00020804FF0000C00250021002200234FEA54
:100DF000074C48EA0C09D0F800A0CAF84490D0F893
:100E00000090C9F83C60D0F80490B9F5403F4ED14D
:100E100004F07F4504F47F0104F47F42E3B2D0F88C
:100E20000890B9F1000F06D142EA010949EA050923
:100E300049EA030C36E0D0F80890B9F1010F04D16B
:100E400042EA010949EA030C2CE0D0F80890B9F114
:100E5000020F09D1C90C920ADB084FEA421949EA8C
:100E6000C12949EA030C1DE0D0F80890B9F1030F3D
:100E70000CD1ED0FC90CD20ADB084FEA421949EA3E
:100E8000812949EAC53949EA030C0BE02D0F090D08
:100E9000120B1B094FEA021949EA012949EA0539EF
:100EA00049EA030CD0F80090C9F838C003E0D0F844
:100EB0000090C9F80C40BDE8F087000001460878B2
:100EC00010381823B0FBF3F20848805C4865032A09
:100ED00005D908686FF30900001D086503E008687C
:100EE0006FF309000865086D70470000927D0008E7
:100EF000704700002DE9FC4F0746894692464FF0A7
:100F0000000800263A48006800EB4000394901EB30
:100F100080008068B0F806B03548006800EB4000FB
:100F200001EB800080688588E81DC11700EB5171D6
:100F3000C910C5EBC101C9B2019100BF54E0E81D61
:100F4000C11700EB5171C91001FB08A4C11700EBD8
:100F50005171C910012904D0022905D0032909D1F2
:100F600009E0207800900FE06078217840EA0120C5
:100F7000009009E000BF20780004617840EA012079
:100F8000A1780843009000BF00BF002624E0A91B01
:100F900001980844401E012101FA00F00099084020
:100FA00060B11349096801EB4101124B53F821204C
:100FB000B91988B24946FFF75DFB0CE00C49096896
:100FC00001EB41010B4B03EB81014A68B91988B26F
:100FD0004946FFF74FFB761CAE42D8D309F101001A
:100FE0001FFA80F908F10108D845A8D3BDE8FC8FA5
:100FF000980001209002012030B502460023002411
:101000000868012816D013686FF30E03D1E90105B3
:101010002843CD6828430D6928434D6928438D69CD
:101020002843CD6928430D6A28434D6A284303436A
:10103000136019E013686FF30E03D1E90705284325
:101040004D6A2843034354686FF30E04D1E9010548
:101050002843CD6828430D6928434D6928438D698D
:101060002843044313605460002030BD0246506999
:1010700040EA4100506100207047F8B506460C4632
:101080001546002000900027D4E900010843A1681C
:10109000491E40EA4110E16840EA41200090009872
:1010A000306100F065FB074609E0681C38B125B1E6
:1010B00000F05EFBC01BA84201D90320F8BDB06957
:1010C00000F020000028F0D100BFF7E770B503461C
:1010D000154600220024012D1FD09A6802F07042AC
:1010E0000868401E4E68761E40EA06168868401E54
:1010F00046EA0026C868401E46EA0036088A401EB6
:1011000046EA0046888A401E46EA0056087E401E8F
:1011100046EA006002439A6022E0DA6802F0704218
:101120000868401E4E68761E40EA06168868401E13
:1011300046EA0026088A401E46EA0046087E401E0F
:1011400046EA006002439C6804F07044C868401E90
:101150000603888A401E46EA00500443DA609C6019
:10116000002070BD30B502460C4602F1180000EBBD
:101170000411002300BF92F83800012801D1022099
:1011800030BD012082F8380000BF022082F839000B
:101190005068B0F5403F02D0506800B100BF8CBB32
:1011A0001068436A3548034048680A2802D04868F6
:1011B000092809D10D89486840EA0540CD6805F045
:1011C0007F452843034307E00D89486840EA05400E
:1011D0000D7B40EA05600343106843621068836931
:1011E0006FF30D03086803431068836148680A2899
:1011F00002D04868092837D1C86820F07F431068BA
:10120000836231E0FFE71068C3691C480340486807
:101210000A2802D04868092809D10D89486840EA9F
:101220000540CD6805F07F452843034307E00D895D
:10123000486840EA05400D7B40EA056003431068BA
:10124000C361106803696FF30D03086803431068F6
:10125000036148680A2802D04868092804D1C86890
:1012600020F07F4310680362012082F8390000BF3C
:10127000002082F8380000BF00BF81E7F0FFFC00CB
:1012800070B5044600250CB9012070BD94F83900F2
:1012900028B9002084F83800204600F022F8022007
:1012A00084F839002068056825F4403560680543F6
:1012B000206805602068456B25F00705A068054398
:1012C000206845632068056C6FF30D05E0680543F1
:1012D000206805640020E063012084F839000020C4
:1012E000D3E770472DE9F04104460D4600272068FA
:1012F000006800F0010000283BD000F039FA0746F2
:1013000031E02068406800F020082068406800F064
:101310000106B8F1000F00D186B120202168886055
:10132000012021688860042084F8390000BF002073
:1013300084F8380000BF0120BDE8F081681C90B13E
:1013400025B100F015FAC01BA8420CD900BF00203F
:1013500084F8380000BFE06B40F02000E063032019
:1013600084F83900E8E72068406800F002000028AF
:10137000C7D02068C06900F0200030B300F0F8F951
:1013800007461CE02068406800F0080038B10820DB
:1013900021688860042084F839000120CCE7681CAB
:1013A00068B125B100F0E4F9C01BA84207D9E06B91
:1013B00040F02000E063032084F83900BCE7206897
:1013C000406800F010000028DCD00220216888600E
:1013D000102021688860012084F8390000BF0020B7
:1013E00084F8380000BF00BFA6E72DE9F8430446A3
:1013F0000D4616461F46DDF8208000BF94F83800E1
:10140000012802D10220BDE8F883012084F83800C9
:1014100000BF022084F839002068006820F0010035
:10142000216808603B46324629462046CDF80080B8
:10143000FFF7D0FC2068006840F0010021680860D8
:101440000020E0E770B504460CB9012070BD94F8A7
:101450003500022801D10120F8E72068006820F05B
:101460000100216808600020216808602168486048
:10147000216888602168C86021680861212021688E
:1014800048612046FFF71AFD054694F854103F20A6
:101490008840A8600020E06484F8350000BF84F82C
:1014A000340000BF00BFD1E770B5044600250CB979
:1014B000012070BD606A00B100BF022084F83500D1
:1014C0002068056818480540D4E901010843E1682F
:1014D00008432169084361690843A1690843E16938
:1014E0000843216A08430543606A042803D1D4E90C
:1014F0000B0108430543206805602068456925F015
:101500000705606A0543606A042801D1A06A0543A3
:10151000206845612046FFF7D1FC0020E0640120EF
:1015200084F835000020C4E73F8010F031B5002476
:1015300000F01EF9044600BF00F01AF9001B0099E4
:101540008842F9D338BD0000F8B502460B460021A9
:1015500000250024002000BFE6E0012606FA01F580
:101560001E6806EA0504AC4273D15E68022E02D002
:101570005E68122E13D1CF0802F1200656F827001C
:101580004E07F70E0F26BE40B0434F07FF0E1E69F1
:10159000BE403043CF0802F1200646F8270010680D
:1015A0004F000326BE40B0431E7906F003064F00ED
:1015B000BE40304310605E68012E08D05E68022E87
:1015C00005D05E68112E02D05E68122E13D190688D
:1015D0004F000326BE40B0434F00DE68BE4030439C
:1015E0009060506801268E40B0431E79C6F3001605
:1015F0008E4030435060D0684F000326BE40B04359
:101600004F009E68BE403043D0605E6806F0805652
:10161000B6F1805FA8D100BF00260096444E366820
:1016200046F48046424F3E603E46366806F48046A9
:10163000009600BF00BF3F4E8F0856F827008E0768
:10164000370F0F26BE40B0433B4EB24202D10026B8
:101650002EE068E0394EB24201D1012628E0384E32
:10166000B24201D1022623E0364EB24201D1032616
:101670001EE0354EB24201D1042619E0334EB2428B
:1016800001D1052614E0324EB24201D106260FE008
:10169000304EB24201D107260AE02F4EB24201D1AC
:1016A000082605E02D4EB24201D1092600E00A26A7
:1016B0008F073F0FBE4030431E4E8F0846F827006D
:1016C000274E3068A0435E6806F48036B6F5803F4A
:1016D00000D12043224E3060361D3068A0435E6842
:1016E00006F40036B6F5003F00D120431C4E361DEF
:1016F0003060361D3068A0435E6806F48016B6F58B
:10170000801F00D12043164E08363060361D3068E9
:10171000A0435E6806F40016B6F5001F00D1204312
:101720000F4E0C363060491C1029FFF416AFF8BD7F
:1017300044380240083801400000024000040240E2
:1017400000080240000C0240001002400014024059
:1017500000180240001C0240002002400024024009
:10176000003C01400AB1816101E00B0483617047D4
:101770000148006870470000A0000120024800688E
:10178000401C014908607047A000012010B50848BE
:10179000006840F4007006490860032000F032F948
:1017A0000F2000F007F800F0E0F8002010BD000066
:1017B000003C024070B5044600F0F8FE4FF47A7128
:1017C000B0FBF1F5284601F063FA00222146501ED5
:1017D00000F0D9F8002070BD70B504460E461546DD
:1017E00000BF94F8A000012801D1022070BD0120A3
:1017F00084F8A00000BF022084F8A10005EB850159
:1018000001EBC50204F1380101EB820034223146BC
:10181000FEF7C6FD2A463146204601F099FA01201E
:101820002168486284F8A10000BF002084F8A0006D
:1018300000BF00BFDAE7014691F8A1007047000041
:1018400070B50446002500260CB9012070BD94F83F
:10185000A10028B9002084F8A000204600F084F8F8
:10186000022084F8A1002068806920F0704021687F
:101870008861D4E901010843E1680843216908430C
:101880002168896908432168886120688068354932
:10189000084021688860A08A050420688068A169E2
:1018A00029430843216888602068C0682D490840A2
:1018B0002168C860A08B05042068C068216A29439C
:1018C00008432168C86020680069264908402168EB
:1018D0000861A08C050420680069A16A29430843B7
:1018E00021680861206840691E49084021684861F4
:1018F000A08D050420684069216B294308432168B5
:10190000486194F83500050294F836000604206812
:10191000C06A00F07F402168C86246EA050094F87A
:10192000341008432168C96A08432168C8622068E6
:10193000406B40F00400216848632068406B40F031
:101940000200216848632068806940F00100216836
:1019500088610020C4F8A400012084F8A1000020C0
:1019600074E7000000F800F07047704700BF00F017
:101970001F02012191404209920002F1E022C2F8C7
:10198000001100BF70472DE9F05F80460D461646F6
:10199000002701F0E9FA074639462A46334601F0A6
:1019A0000700C0F1070ABAF1040F02D94FF0040A88
:1019B00001E0C0F1070AD14600F1040ABAF1070FAD
:1019C00002D24FF0000A01E0A0F1030AD4464FF022
:1019D000010A0AFA09FAAAF1010A0AEA020A0AFA4B
:1019E0000CFA4FF0010B0BFA0CFBABF1010B0BEAFD
:1019F000030B4AEA0B042146404601F0BDFABDE85C
:101A0000F09F000000BF00F00702064B19684FF678
:101A1000FF031940044B0B4343EA0221014B1960B9
:101A200000BF70470CED00E00000FA052DE9F84317
:101A30000446002600250027A846A946207800F085
:101A4000010088B100BFFE48006820F40000FC4996
:101A5000086008460068616B0843F949086000BFE8
:101A6000606B08B94FF00108206800F40020B0F561
:101A7000002F13D1F2488430006820F44010E16B4D
:101A80000843EF4984310860E06BB0F5801F01D155
:101A90004FF00108E06B08B94FF00109206800F42D
:101AA0008010B0F5801F13D1E5488430006820F421
:101AB0004000216C0843E24984310860206CB0F595
:101AC000800F01D14FF00108206C08B94FF00109D7
:101AD000206800F08070B0F1807F01D14FF00108E4
:101AE000207800F02000202870D100BF0020009056
:101AF000D3483830006840F08050D1493831086010
:101B00000846006800F08050009000BF00BFCD483C
:101B1000006840F48070CB490860FFF729FE064654
:101B200007E0FFF725FE801B642802D90320BDE8EB
:101B3000F883C448006800F480700028F1D0C048E1
:101B40006830006800F44070218E01F440718842D2
:101B50004ED0BB486830006820F44075B848683003
:101B6000006840F48030B649683108600846006873
:101B700020F4803008600846056005F0020098B146
:101B8000FFF7F6FD064608E0FFF7F2FD801B41F285
:101B90008831884201D90320C9E7A9486830006824
:101BA000C0F340000028EFD000BF208E00F440704A
:101BB000B0F5407F0BD1A248006820F4F810A24A8B
:101BC000216B114008439E49086006E010E09C48E4
:101BD000006820F4F8109A49086099486830006855
:101BE000218EC1F30B01084395496831086000BF9D
:101BF000207800F01000102810D100BF90488430E9
:101C0000006820F080708E498431086008460068C2
:101C1000A16B08438A498431086000BF208800F422
:101C20008040B0F5804F09D185488830006820F4A5
:101C30004030616E0843824988310860208800F492
:101C40000040B0F5004F09D17D488830006820F48D
:101C50004020A16E08437A4988310860206800F46A
:101C60008030B0F5803F09D175488830006820F495
:101C70004010E16E0843724988310860206800F422
:101C80000030B0F5003F09D16D488830006820F47D
:101C90004000216F08436A4988310860207800F0CD
:101CA0004000402809D166488830006820F00300D1
:101CB000616C0843624988310860207800F0800038
:101CC000802809D15E488830006820F00C00A16CA3
:101CD00008435B4988310860208800F48070B0F5C3
:101CE000807F09D156488830006820F03000E16CD0
:101CF0000843534988310860208800F40070B0F52B
:101D0000007F09D14E488830006820F0C000216D66
:101D100008434B4988310860208800F48060B0F5A2
:101D2000806F09D146488830006820F44070616DAA
:101D30000843434988310860208800F40060B0F50A
:101D4000006F09D13E488830006820F44060A16DE2
:101D500008433B4988310860208800F48050B0F582
:101D6000805F09D136488830006820F44050E16D2A
:101D70000843334988310860208800F40050B0F5EA
:101D8000005F09D12E488830006820F44040216E61
:101D900008432B4988310860206800F48000B0F5C2
:101DA000800F09D126488830006820F08060A16F3C
:101DB0000843234988310860206800F40010B0F51A
:101DC000001F0FD11E488830006820F00060E16FCE
:101DD00008431B4988310860E06FB0F1006F01D102
:101DE0004FF00109207800F00800082801D14FF0D9
:101DF0000109206800F48020B0F5802F09D1104837
:101E00008830006820F04070616F08430C498831C9
:101E10000860206800F40000B0F5000F0AD10848FF
:101E20008830006820F08050D4F8801008430449BE
:101E300088310860B8F1010F0BD0206806E000007F
:101E40000838024000700040FFFCFF0FB0F1007F37
:101E50007ED1FE48006820F08060FC490860FFF7F2
:101E600087FC064606E0FFF783FC801B642801D947
:101E700003205CE6F5480068C0F3C0600028F2D19A
:101E8000207800F00100E8B3606BD8BBEF488430E5
:101E9000006800F440304FF4403191FAA1F1B1FAFA
:101EA00081F120FA01F5E9488430006800F07060A3
:101EB0004FF0706191FAA1F1B1FA81F120FA01F7C6
:101EC00047F6C07191FAA1F1B1FA81F160688840DA
:101ED0004FF4403191FAA1F1B1FA81F105FA01F123
:101EE00008434FF0706191FAA1F1B1FA81F107FA5C
:101EF00001F108434FF0E04292FAA2F2B2FA82F204
:101F0000A16800E004E091400843D04984310860B2
:101F1000206800F40020B0F5002F03D1E06BB0F58D
:101F2000801F09D0206800F48010B0F5801F50D1C8
:101F3000206CB0F5800F4CD1C4488430006800F4A8
:101F400040304FF4403191FAA1F1B1FA81F100E053
:101F5000C8E020FA01F5BD488430006800F0E04098
:101F60004FF0E04191FAA1F1B1FA81F120FA01F7C5
:101F700047F6C07191FAA1F1B1FA81F16068884029
:101F80004FF4403191FAA1F1B1FA81F105FA01F172
:101F900008434FF0706292FAA2F2B2FA82F2E1685C
:101FA000914008434FF0E04191FAA1F1B1FA81F17B
:101FB00007FA01F10843A54984310860A3488C3031
:101FC000006820F01F00616A491E08439F498C3158
:101FD0000860206800F08070B0F1807F3FD19B489E
:101FE0008430006800F070604FF0706191FAA1F1E8
:101FF000B1FA81F120FA01F594488430006800F0CC
:10200000E0404FF0E04191FAA1F1B1FA81F120FAFC
:1020100001F747F6C07191FAA1F1B1FA81F1606858
:1020200088404FF4403292FAA2F2B2FA82F2216969
:10203000914008434FF0706191FAA1F1B1FA81F13A
:1020400005FA01F108434FF0E04191FAA1F1B1FA2C
:1020500081F107FA01F108437C4984310860206866
:1020600000F00070B0F1007F25D147F6C07191FA01
:10207000A1F1B1FA81F1606888404FF4403292FAE0
:10208000A2F2B2FA82F22169914008434FF07062E5
:1020900092FAA2F2B2FA82F2E168914008434FF05C
:1020A000E04292FAA2F2B2FA82F2A16891400843A9
:1020B0006649843108606548006840F08060634983
:1020C0000860FFF755FB064606E0FFF751FB801B53
:1020D000642801D903202AE55C480068C0F3C06089
:1020E0000028F2D0B9F1010F7ED15848006820F0E5
:1020F000805056490860FFF73BFB064606E0FFF7B5
:1021000037FB801B642801D9032010E54F48006885
:10211000C0F340700028F2D1206800F40020B0F530
:10212000002F01D1E06B38B1206800F48010B0F5C9
:10213000801F4ED1206CE8BB44488830006800F412
:1021400040304FF4403191FAA1F1B1FA81F120FA17
:1021500001F53E488830006800F0E0404FF0E04173
:1021600091FAA1F1B1FA81F120FA01F747F6C071B5
:1021700091FAA1F1B1FA81F1606988404FF44031E0
:1021800091FAA1F1B1FA81F105FA01F108434FF09A
:10219000706292FAA2F2B2FA82F2A1699140084307
:1021A0004FF0E04191FAA1F1B1FA81F107FA01F1A2
:1021B000084300E00DE0254988310860081D0068EB
:1021C00020F4F851A06A401E41EA00201F498C31DA
:1021D0000860206800F40010B0F5001F48D1E06FDF
:1021E000B0F1006F44D100E0A7E0184888300068E3
:1021F00000F070604FF0706191FAA1F1B1FA81F1D5
:1022000020FA01F511488830006800F0E0404FF0F6
:10221000E04191FAA1F1B1FA81F120FA01F747F614
:10222000C07191FAA1F1B1FA81F1606988404FF46F
:10223000403292FAA2F2B2FA82F2216A9140084345
:102240004FF0706191FAA1F102E000000038024005
:10225000B1FA81F105FA01F108434FF0E04191FA3A
:10226000A1F1B1FA81F107FA01F10843344908609C
:10227000207800F00800082845D13148006800F0B7
:1022800070604FF0706191FAA1F1B1FA81F120FA1A
:1022900001F52B48006800F440304FF4403191FACA
:1022A000A1F1B1FA81F120FA01F747F6C07191FA74
:1022B000A1F1B1FA81F1606988404FF4403191FA9F
:1022C000A1F1B1FA81F107FA01F108434FF0706111
:1022D00091FAA1F1B1FA81F105FA01F108434FF049
:1022E000E04292FAA2F2B2FA82F2E1699140084326
:1022F00013490860081D006820F44030E16A084373
:102300000F49091D08600E488838006840F0805069
:102310000B4988390860FFF72BFA064606E0FFF7FD
:1023200027FA801B642801D9032000E40448883878
:102330000068C0F340700028F1D000202CE40000B9
:102340008838024070B504460D460026954800685E
:1023500000F00F00A84271D29248006820F00F00F0
:102360002843904908600846006800F00F00A84222
:1023700001D0012070BD207800F00200022807D1B2
:102380008948006820F0F000A16808438649086089
:10239000207800F0010000283BD06068012807D1B8
:1023A000814808380068C0F34040A0B90120E1E747
:1023B0006068022807D17C4808380068C0F3406094
:1023C00048B90120D6E7784808380068C0F34000D3
:1023D00008B90120CEE77448006820F00300616866
:1023E000084371490860FFF7C3F906466068012891
:1023F00010D108E0FFF7BCF9801B41F28831884218
:1024000001D90320B6E76848006800F00C000428F2
:10241000F0D1A7E06068022811D108E0FFF7A8F921
:10242000801B41F28831884201D90320A2E75E482F
:10243000006800F00C000828F0D193E010E008E0FC
:10244000FFF796F9801B41F28831884201D90320B9
:1024500090E75548006800F00C000028F0D181E0BA
:10246000207800F00200022807D14F48006820F0D1
:10247000F000A16808434C490860207800F0010092
:10248000002860D06068012807D1474808380068F4
:10249000C0F34040A0B901206CE76068022807D172
:1024A000414808380068C0F3406048B9012061E73E
:1024B0003D4808380068C0F3400008B9012059E7DA
:1024C0003948006820F00300616808433649086015
:1024D000FFF74EF906466068012810D108E0FFF7C3
:1024E00047F9801B41F28831884201D9032041E736
:1024F0002D48006800F00C000428F0D123E060684B
:10250000022810D108E0FFF733F9801B41F288312F
:10251000884201D903202DE72348006800F00C0011
:102520000828F0D10FE008E0FFF722F9801B41F204
:102530008831884201D903201CE71B48006800F05D
:102540000C000028F0D11748006820F00F00284345
:10255000144908600846006800F00F00A84201D046
:10256000012007E7207800F00400042807D10E4876
:10257000006820F4E050E16808430B4908602078C7
:1025800000F00800082808D10748006820F46040DF
:10259000216940EAC100044908600F20FFF70AF9E9
:1025A0000020E7E6003C02400838024000B500F099
:1025B00019F80949096801F0F001F02292FAA2F233
:1025C000B2FA82F2D140054A515CC8400449086021
:1025D0000846006800BD000008380240827D0008FF
:1025E0000000012070B50021002200230020274CAC
:1025F000246804F00C0424B1042C04D0082C41D12C
:1026000003E0234840E023483EE0204C241F246898
:1026100004F03F011D4C241F246804F4800484B19D
:102620001C4CB4FBF1F5194C241F246847F6C07606
:10263000344096FAA6F6B6FA86F6F44005FB04F2A4
:102640000FE0134CB4FBF1F5104C241F246847F63F
:10265000C076344096FAA6F6B6FA86F6F44005FB44
:1026600004F20A4C241F246804F440344FF440352B
:1026700095FAA5F5B5FA85F5EC40641C6300B2FB4C
:10268000F3F001E0024800BF00BF70BD083802400F
:102690000024F40040787D0138B5044600252078F8
:1026A00000F00100002870D0F848006800F00C002D
:1026B00004280DD0F548006800F00C00082813D15C
:1026C000F248001F006800F48000B0F5800F0BD1C5
:1026D000EE4808380068C0F340400028E3D0606846
:1026E000002852D1012038BD00BFE84808380068F2
:1026F00020F48030E549083908600846006820F475
:10270000802008600846006820F48030086000BF20
:10271000FFF72EF8054607E0FFF72AF8401BB0F553
:10272000FA7F01D90320DEE7D84808380068C0F3F3
:1027300040400028F0D100BFD4480838006820F499
:102740008030D249083908606068B0F5803F0AD10E
:102750000846006820F4802008600846006840F4BD
:10276000803008601FE06068B0F5A02F0ED1C74828
:102770000838006840F48020C449083908600846D9
:10278000006840F4803008600DE036E0BF4808384B
:10279000006820F48020BD490839086008460068B8
:1027A00020F48030086000BF606898B1FEF7E0FF59
:1027B000054607E0FEF7DCFF401BB0F5FA7F01D9C4
:1027C000032090E7B14808380068C0F34040002873
:1027D000F0D012E0FEF7CCFF054607E0FEF7C8FF99
:1027E000401BB0F5FA7F01D903207CE7A7480838E1
:1027F0000068C0F340400028F0D1207800F00200CB
:10280000022873D1A148006800F00C0058B19F481D
:10281000006800F00C00082821D19C48001F0068C7
:1028200000F48000D8B9994808380068C0F3400027
:1028300020B1E068012801D0012054E7934808380E
:10284000006820F0F800F82292FAA2F2B2FA82F2BE
:102850002169914008438D490839086046E0E068E5
:1028600050B38A480838006840F0010087490839A9
:102870000860FEF77DFF054606E0FEF779FF401B86
:10288000642801D903202EE7804808380068C0F387
:1028900040000028F1D07D480838006820F0F8009A
:1028A000F82292FAA2F2B2FA82F221699140084328
:1028B00076490839086019E074480838006820F043
:1028C0000100724908390860FEF752FF054606E02C
:1028D000FEF74EFF401B642801D9032003E76B4835
:1028E00008380068C0F340000028F1D1207800F0DB
:1028F0000800082836D16069D0B164486C3000689F
:1029000040F0010061496C310860FEF731FF054677
:1029100006E0FEF72DFF401B642801D90320E2E604
:102920005A486C300068C0F340000028F1D019E02C
:1029300056486C30006820F0010054496C31086042
:10294000FEF716FF054606E0FEF712FF401B64285F
:1029500001D90320C7E64D486C300068C0F3400041
:102960000028F1D1207800F00400042878D100BFBD
:102970000020009045483830006840F080504349BE
:10298000383108600846006800F08050009000BFB1
:1029900000BF3F48006840F480703D490860FEF782
:1029A000E7FE054606E0FEF7E3FE401B642801D97A
:1029B000032098E63648006800F480700028F2D0C2
:1029C00000BF32486830006820F001002F496831AC
:1029D00008600846006820F00400086008460068A7
:1029E00020F00100086000BFFEF7C2FE054608E0C7
:1029F000FEF7BEFE401B41F28831884201D9032018
:102A000071E6224868300068C0F340000028EFD12A
:102A100000BF1E486830006820F001001B49683183
:102A20000860A06801280AD10846006820F0040068
:102A300008600846006840F0010008601EE0A068D9
:102A400005280ED111486830006840F004000F4995
:102A5000683108600846006840F0010008600DE039
:102A60003BE00A486830006820F0040007496831FC
:102A700008600846006820F00100086000BFA068F8
:102A8000C0B1FEF775FE05460DE0000008380240B3
:102A900000700040FEF76CFE401B41F28831884216
:102AA00001D903201FE650480068C0F34000002809
:102AB000F0D012E0FEF75CFE054608E0FEF758FE97
:102AC000401B41F28831884201D903200BE6464879
:102AD0000068C0F340000028F0D1A069F0B342487C
:102AE0006838006800F00C00082879D0A069022836
:102AF0005AD13D487038006820F080703A497039EA
:102B00000860FEF735FE054606E0FEF731FE401B85
:102B1000642801D90320E6E5334870380068C0F323
:102B200040600028F1D1206A40F0005047F6C072A2
:102B300092FAA2F2B2FA82F2616A9140084301224B
:102B4000A16AC2EB51014FF4403292FAA2F2B2FAFA
:102B500082F291400843E169084300E042E04FF00F
:102B6000706292FAA2F2B2FA82F2E16A91400843EC
:102B70001D496C390860081F006840F08070091F0B
:102B80000860FEF7F5FD054606E0FEF7F1FD401B87
:102B9000642801D90320A6E5134870380068C0F303
:102BA00040600028F1D01DE00F487038006820F028
:102BB00080700D4970390860FEF7DAFD054607E0C0
:102BC000FEF7D6FD401B642802D903208BE507E001
:102BD000054870380068C0F340600028F0D101E07B
:102BE000012080E500207EE57038024070B5044683
:102BF0000D460CB9012070BD94F82C0028B90020B6
:102C000084F82D00204600F011F8022084F82C00F2
:102C1000211D2068FEF7F0F92946D4E90002FEF7ED
:102C200055FA012084F82C000020E4E7704770B5C5
:102C300004460D4694F82C00022800D170BD0220F5
:102C400084F82C0029462068FEF710FA012084F849
:102C50002C000020F2E770B504460D46164694F8A5
:102C60002C00022800D170BD022084F82C003246CE
:102C700029462068FEF701FA2868022803D10520BA
:102C800084F82C0002E0012084F82C000020EAE700
:102C900070B504462546681EB0F1807F01D301203F
:102CA0000FE0681E4FF0E02148610F214FF0FF3028
:102CB00000F062F900204FF0E021886107200861F0
:102CC000002070BD00BFFEE72DE9F84304460D4625
:102CD00016461F46DDE908984FF440301849486011
:102CE0001848006800EB800101EBC001164800EBBA
:102CF00081000069022803D102211148816002E0AD
:102D000000210F4881600E48C0F80C900F480C4914
:102D100008600846FEF7B4FA80B921460848FEF775
:102D200021FA58B933462A46414605480097FEF72E
:102D30005CFB18B90A210248FEF7D4FABDE8F88313
:102D40005002012098000120E001012000B0024063
:102D5000F0B50023002400258E880768FF68C7F3BC
:102D60000B473E44330406688436802707FB02661F
:102D7000766806F47047066884364FF0800C0CFBCA
:102D8000026677600E680768FF68C7F30B473E442A
:102D9000761C1E43076884370CFB02777E608E89A1
:102DA0000768FF68C7F30A073E44330406688436A1
:102DB000802707FB0266B66806F47047066884360B
:102DC0000CFB0266B7608E680768FF68C7F30A07E6
:102DD0003E44761C1E43076884370CFB0277BE60B6
:102DE00006688436802707FB0266366926F00707E7
:102DF000066884360CFB026637610F690668843604
:102E00000CFB026637613126765C33023226765C33
:102E100034040E7E350606688436802707FB02667A
:102E2000B6690027066884360CFB0266B76191F824
:102E300030601E4326432E43076884370CFB02771D
:102E4000BE6106688436802707FB0266766926F035
:102E5000FF07066884360CFB026677614F690668D7
:102E600084360CFB0266776106688436802707FB90
:102E70000266F76940F20776B743066884360CFBB2
:102E80000266F761D1E907673E43076884370CFBA8
:102E90000277FE6106688436802707FB0266B66A01
:102EA0000027066884360CFB0266B7624F6A066824
:102EB00084360CFB0266B7620E690EB9042313E078
:102EC0000E69012E01D103230EE00E69042E08D0F5
:102ED0000E69022E05D00E69032E02D00E69072E50
:102EE00001D1022300E0012306688436802707FB16
:102EF0000266F66A06F0E027066884364FF0800C1A
:102F00000CFB0266F762D1E90076F61B5E43F71C04
:102F10000E8D5E4347EA0647066884360CFB026660
:102F2000F76206688436802707FB0266366BF70A6D
:102F3000FF02066884360CFB02663763CF6A0668B8
:102F400084360CFB0266376306688436D701F6596F
:102F500046F00107066884364FEAC21C46F80C703A
:102F6000F0BD00BFFEE7704702480068C0F30220D2
:102F7000704700000CED00E010B5002807DA0A07E2
:102F8000140E054A00F00F031B1FD45403E00A0778
:102F9000130E024A135410BD18ED00E000E400E0E7
:102FA000F0B5184C2068C0F34E3200F00704251D20
:102FB000C0F3C903B3FA83F404F01F06BFF34F8FC5
:102FC00000BF1C4600BF04FA06F702FA05FC47EAF8
:102FD0000C010D4F39602700A4F10104F3D1140056
:102FE000A2F10102EDD1BFF34F8F064C6C3C246877
:102FF00044F48034034F6C3F3C60BFF34F8FBFF30A
:103000006F8FF0BD80ED00E060EF00E010B500F0E4
:1030100041FEFEF7B3FB10BD00B591B0012000905A
:1030200000040190002003900220069041050791C2
:10303000192108914FF4D871099102210A910921AF
:103040000B916846FFF728FB0F200C9002200D9093
:1030500000200E904FF4A0500F904FF4805010902D
:1030600007210CA8FFF76EF911B000BD14480068E5
:1030700040F47000124908601248006840F00100F6
:103080001049086000200F49083108600D480068A9
:103090000D4908400B4908600C48091D0860081FCD
:1030A000006820F48020091F0860002005490C31C9
:1030B00008604FF0006002498039086070470000E6
:1030C00088ED00E000380240FFFFF6FE10300024DB
:1030D0001FB5044600200223CDE9003002900346CC
:1030E00080220AA103900A4800F0F0FD002001238D
:1030F000CDE9003002900346802206A103900648E5
:1031000000F0E4FD002000F045FC1FBD4C434400EE
:103110001D3100084C454400A131000810B504469B
:10312000FDF7FEFA4FF040410120FDF751FB012071
:10313000FDF77EFC0E48FDF78FFC4FF0FF30FDF7EA
:103140007DFC4FF0FF30FDF797F90A48FDF792FC40
:10315000012309A20A210020FDF7F8F901230BA29F
:1031600023210020FDF7F2F9002000F013FC10BD30
:1031700070000120800000FF53544D333246373435
:103180003647204C43442044656D6F005768617496
:1031900020746865206675636B2021212100000082
:1031A00086B000BF002000901448006840F4807092
:1031B000124908600846006800F48070009000BF63
:1031C00000BF022001900120029003900320049090
:1031D00001A90B48FEF7B8F900BF012202210848F7
:1031E000FEF7C0FA642000F08DFB002202210448A3
:1031F000FEF7B8FA642000F085FBEEE730380240B5
:103200000020024000BFFEE71FB5FDF7C7FDFEF737
:10321000BDFAFFF701FF00200323CDE90030029043
:103220000346802204A10390054800F04FFD00F002
:1032300023FC00BFFEE70000494E49540000000097
:10324000D130000810B504460E48006844600E48AE
:103250000068844207D20B480168091D0B480068CA
:1032600000F07DFA0CE007480168091D0848006875
:1032700000F075FA07480068844201D205480460EE
:1032800010BD000014000120280001201C000120B6
:1032900018000120440001202DE9F04106460F46A8
:1032A0001FB9B00000F07CF900E03846054655B182
:1032B000542000F075F904460CB1256304E028465B
:1032C00000F0C2FA00E000242046BDE8F0810000D2
:1032D00070B523E000F00CFC1348006808B9012029
:1032E00000E00020054600F055FEBDB900F05EFA92
:1032F0000D48C068C468201D00F00AFA0B48006839
:10330000401E0A4908600A480068401E08490860D3
:1033100000F07AFA204600F00DF800BF044800687B
:103320000028D7D170BD00008001012024000120B9
:103330002000012010B50446206B00F085FA2046DD
:1033400000F082FA10BD000030B54FF4803317480A
:1033500000F007042CB1C01D20F00700134C041B23
:103360001B1B0246124C22600024114D6C60D018C9
:10337000083820F007000F4C206000240D4D2D6808
:103380006C600C4D2D682C601146441A4C60094C41
:1033900024680C60084D4C682C60084D4C682C600B
:1033A0004FF00044064D2C6030BD000000000020AE
:1033B0004C000120540001205C0001205800012035
:1033C0006000012000BFFFF783FF07480068012865
:1033D00007D94FF0805005490860BFF34F8FBFF306
:1033E0006F8F00F0A9F9EEE7A400012004ED00E0E2
:1033F0002DE9F04704460F4615469946DDF8208032
:10340000002607E0B95D04F134008155B85D00B9CC
:1034100002E0761C102EF5D300BF00214320015599
:10342000082D00D30725E56265640020A064201DF7
:1034300000F092F904F1180000F08EF92461C5F152
:103440000800A06164620020E06484F85000BDE8D8
:10345000F087000010B5002407E004EB84010F4A58
:1034600002EB810000F06BF9641C082CF5D30C48CA
:1034700000F065F90B4800F062F90B4800F05FF9C5
:103480000A4800F05CF90A4800F059F90448094973
:10349000086004480849086010BD0000A40001202D
:1034A00044010120580101206C010120800101200C
:1034B00094010120180001201C00012010B50146D4
:1034C000164800E0006803688B42FBD3024643685D
:1034D00013448B4204D143684C6823444360014643
:1034E0000A464B6813440468A34211D10C4C03688C
:1034F0002468A34208D04B680468646823444B6086
:1035000003681B680B6005E0054B1B680B6001E05E
:1035100003680B60884200D0016010BD4C000120A0
:10352000540001200A490968096809B9012100E02D
:10353000002121B14FF0FF31064A116006E0044935
:103540000968C968C868034A41681160704700008B
:10355000180001204400012010480068401C08B9F0
:10356000012000E0002060B900BF502072B680F357
:103570001188BFF34F8FBFF36F8F62B600BF00BFDC
:10358000FEE700BF502072B680F31188BFF34F8F63
:10359000BFF36F8F62B600BF00BFFEE7640001207B
:1035A0002DE9F04104464FF0000800F0A1FA494827
:1035B000006808B9FFF7C8FE4748006820400028A7
:1035C0006FD1E4B1083404F00700C0B104F0070083
:1035D000C0F10800044404F0070008B9012000E02D
:1035E000002060B900BF502072B680F31188BFF38D
:1035F0004F8FBFF36F8F62B600BF00BFFEE7002C96
:103600004FD03648006884424BD8354E3046056866
:1036100001E02E462D686868A04202D22868002882
:10362000F7D12C48006885423BD0306800F108088B
:10363000286830606868001B10281BD92F1907F014
:10364000070008B9012000E0002060B900BF502049
:1036500072B680F31188BFF34F8FBFF36F8F62B6DE
:1036600000BF00BFFEE76868001B78606C603846EA
:10367000FFF724FF194968680968081A17490860A4
:103680000846006817490968884203D21348006851
:103690001449086010496868096808436860002098
:1036A000286000F077FC08F0070008B9012000E06E
:1036B000002060B900BF502072B680F31188BFF3BC
:1036C0004F8FBFF36F8F62B600BF00BFFEE740466B
:1036D000BDE8F08154000120600001205800012065
:1036E0004C0001205C000120001F4FF0807303603C
:1036F000001F0160001F054B036014380260001FAB
:103700006FF002030360203870470000593500084D
:1037100001460A69D1E901309860D1E90103586096
:103720005068884201D188685060002008611068A4
:10373000401E106010687047704700BFFEE700F140
:10374000080141604FF0FF31816000F10801C16064
:10375000016100210160704700210161704710B5CF
:1037600002460B685C1C0CB9106907E002F1080006
:1037700000E04068446824689C42FAD944684C6080
:103780004C68A160886041600A611468641C146020
:1037900010BD42684A6093688B609368596091607D
:1037A000086103685B1C03607047000000BF502085
:1037B00072B680F31188BFF34F8FBFF36F8F62B67D
:1037C00000BF0F480068401C0D49086008460068AB
:1037D000012814D10B480068C0B208B9012000E0EC
:1037E000002060B900BF502072B680F31188BFF38B
:1037F0004F8FBFF36F8F62B600BF00BFFEE7704709
:103800006400012004ED00E00E48006860B900BFCC
:10381000502072B680F31188BFF34F8FBFF36F8FC4
:1038200062B600BF00BFFEE706480068401E0549BB
:1038300008600846006820B9002080F3118800BFA6
:1038400000BF70476400012070B506463546002E63
:1038500043D0083D2C46214960680968084008B1FA
:10386000012000E0002060B900BF502072B680F354
:103870001188BFF34F8FBFF36F8F62B600BF00BFD9
:10388000FEE7206808B9012000E0002060B900BF11
:10389000502072B680F31188BFF34F8FBFF36F8F44
:1038A00062B600BF00BFFEE70C49606809680840C7
:1038B00098B1206888B909496068096888436060E0
:1038C00000F016F906496068096808440449086070
:1038D0002046FFF7F3FD00F05DFB70BD60000120A6
:1038E00058000120064800684FF47A71B0FBF1F0EF
:1038F000401E4FF0E021486107200861704700003A
:103900000000012070B5044600267CB31C48006806
:1039100008B9012000E0002060B900BF502072B655
:1039200080F31188BFF34F8FBFF36F8F62B600BF74
:1039300000BFFEE700F0DCF81248006805191248E5
:103940000068001DFFF7E4FE50B90F48006890F8CA
:103950002C10012088400D49096881430B48016003
:103960002846FFF76FFC00F015FB06463EB94FF006
:10397000805007490860BFF34F8FBFF36F8F70BD52
:103980004800012028000120140001202C00012003
:1039900004ED00E070B50546FFF708FF15B92D48A6
:1039A000006800E028460446201DFFF7B1FE78B904
:1039B000E06A00EB8000284951F8200040B994F8F3
:1039C0002C10012088402549096881432348016063
:1039D000A06A18B104F11800FFF79AFE211D2048D3
:1039E000FFF7D7FE1F480068401C1E4908601E48AC
:1039F0000068401C1C490860FFF706FF1B48006870
:103A0000F8B11448006884421CD11948006808B90C
:103A1000012000E0002060B900BF502072B680F3A2
:103A20001188BFF34F8FBFF36F8F62B600BF00BF27
:103A3000FEE74FF080500F490860BFF34F8FBFF390
:103A40006F8F05E0FFF7B2FEFFF76CFDFFF7DCFEBE
:103A500070BD000014000120A40001202C000120F2
:103A600080010120200001204000012030000120C1
:103A70004800012004ED00E01FB5002000900190F7
:103A800002900346802215A10390164800F01EF90B
:103A90000446012C13D100BF502072B680F3118868
:103AA000BFF34F8FBFF36F8F62B600BF01200E4987
:103AB000086000200D49086000F078F80DE064B956
:103AC00000BF502072B680F31188BFF34F8FBFF351
:103AD0006F8F62B600BF00BFFEE71FBD49444C4573
:103AE00000000000C533000830000120280001203C
:103AF00002480068401C01490860704748000120E6
:103B000010B52548006818B101202449086042E03A
:103B1000002022490860224800680068204909689E
:103B2000096B884205D81E48016834310068FFF7E8
:103B300004FE1C480068B0FA80F0C0F11F0101EBE0
:103B40008100194A52F8200008B1012000E000204D
:103B500060B900BF502072B680F31188BFF34F8F59
:103B6000BFF36F8F62B600BF00BFFEE701EB8102BB
:103B70000D4B03EB820042685268426000F108027C
:103B80004368934202D14268526842604268D268F8
:103B9000034B1A6000BF10BD48000120380001200F
:103BA000140001202C000120A40001201CB5334981
:103BB000084600780190FF200A46107008460078F9
:103BC00000909DF8000000F0F0009DF80020904269
:103BD00001D1012000E0002060B900BF502072B682
:103BE00080F31188BFF34F8FBFF36F8F62B600BFB2
:103BF00000BFFEE79DF8000000F05000204A107062
:103C00000720204A106009E01E480068401E1D4A37
:103C100010609DF800004006000E00909DF8000026
:103C200000F080008028EFD0164800680002154A96
:103C300010601046008800F4E06010600F4A0198A0
:103C400010701148006840F470000F490860084681
:103C5000006840F070400860FFF744FE00200B4908
:103C60000860FCF73FFB0A48006840F04040084904
:103C70000860FCF727FB00201CBD000000E400E00A
:103C8000680001206C00012020ED00E064000120AC
:103C900034EF00E010B500BF5020EFF3118172B691
:103CA00080F31188BFF34F8FBFF36F8F62B600BFF1
:103CB00000F0C8F818B14FF08050034908600020A8
:103CC00080F3118800BF10BD04ED00E02DE9FF4F27
:103CD00081B0804616469A46DDE90E5BB8F1000FCA
:103CE0000CD100BF502072B680F31188BFF34F8F04
:103CF000BFF36F8F62B600BF00BFFEE7082D01D291
:103D0000012000E0002060B900BF502072B680F3AF
:103D10001188BFF34F8FBFF36F8F62B600BF00BF34
:103D2000FEE730461099FFF7B7FA0446002C63D03F
:103D3000701E216B01EB800929F0070909F00700CB
:103D400008B9012000E0002060B900BF502072B621
:103D500080F31188BFF34F8FBFF36F8F62B600BF40
:103D600000BFFEE700962A462046119B0299FFF706
:103D70003FFB524641464846FFF7B6FC2060BBF188
:103D8000000F01D0CBF80040FFF710FD2648006877
:103D9000401C254908602548006840B92348046054
:103DA0000846006801280CD1FFF754FB09E02048C1
:103DB000006830B91D480068C06AA84201D81B4895
:103DC00004601C480068401C1A49086094F82C10D4
:103DD0000120884018490968084317490860E16ACA
:103DE00001EB8101154A02EB8100211DFFF7D1FC97
:103DF0000127FFF709FD01E04FF0FF37012F0ED13A
:103E00000B48006858B109480068C06AA84206D249
:103E100038070B490860BFF34F8FBFF36F8F3846E9
:103E200005B0BDE8F08F000024000120140001203F
:103E300030000120400001202C000120A4000120BE
:103E400004ED00E02DE9F0414FF00008464800681D
:103E500000287BD145480068401C4449086008465A
:103E6000066826BB42480068006808B9012000E0E7
:103E7000002060B900BF502072B680F31188BFF3F4
:103E80004F8FBFF36F8F62B600BF00BFFEE73848A9
:103E90000768384800683649086036480760364881
:103EA0000068401C34490860FFF73CFB00BF334802
:103EB000006886423CD300BF2D480068006808B9FE
:103EC000012000E0002020B14FF0FF302B490860B6
:103ED0002DE027480068C068C4686568AE4202D219
:103EE0002648056023E0201DFFF712FCA06A18B1E8
:103EF00004F11800FFF70CFC94F82C100120884006
:103F00001F49096808431E490860E16A01EB810105
:103F10001C4A02EB8100211DFFF73BFC1A49E06AB5
:103F20000968C96A8842C7D34FF00108C4E700BFD7
:103F300015480068C06A00EB8000124951F8200063
:103F4000012808D94FF0010805E0FFE70F48006895
:103F5000401C0E4908600E48006808B14FF0010887
:103F60004046BDE8F0810000480001202800012003
:103F7000180001201C0001203C0001204400012009
:103F80002C000120A4000120140001203400012095
:103F90003800012070B500253748006860B900BFBF
:103FA000502072B680F31188BFF34F8FBFF36F8F2D
:103FB00062B600BF00BFFEE7FFF7F8FB2E480068BF
:103FC000401E2D49086008460068002850D12B4843
:103FD000006800284CD024E02948C068C46804F177
:103FE0001800FFF795FB201DFFF792FB94F82C10AB
:103FF0000120884023490968084322490860E16A92
:1040000001EB8101204A02EB8100211DFFF7C1FB7A
:104010001E49E06A0968C96A884202D301201C4926
:1040200008601748006808B9012000E00020002857
:10403000D2D01848006878B10AE0FFF703FF10B14A
:1040400001201349086013480068401E11490860A8
:10405000104800680028F0D10D480068012807D1F9
:10406000012500070C490860BFF34F8FBFF36F8F26
:10407000FFF7CAFB284670BD48000120240001203C
:104080006C0101202C000120A4000120140001205B
:10409000380001203400012004ED00E04FF04070B2
:1040A000E1EE100A70470000000000000000000070
:1040B0000000000000000000000000000000000000
:1040C00000000000000000000000000000000000F0
:1040D00000000000000000000000000000000000E0
:1040E00000000000000000000000000000000000D0
:1040F00000000000038000038000038000038000B4
:10410000038000038000038000038000038000011F
:104110000000010000000000000000038000038098
:10412000000000000000000000000000000000008F
:104130000000000000000000000000000000000E71
:1041400070000E70000E7000042000042000042097
:10415000000420000000000000000000000000003B
:10416000000000000000000000000000000000004F
:10417000000000000000000000000000000000003F
:104180000000000006600006600006600006600097
:104190000660003FF8003FF8000660000CC0003FDA
:1041A000F8003FF8000CC0000CC0000CC0000CC0B0
:1041B000000CC00000000000000000000000000033
:1041C00000000000000000000001800001800007E6
:1041D000B0000FF0001870001870001C00000F8075
:1041E0000007E00000F0001830001C30001C7000D8
:1041F0001FE0001BC0000180000180000180000161
:10420000800000000000000000000000000000002E
:10421000000000000780000FC0001CE000186000D4
:104220001860001CE0000FF80007E0001FF0000716
:10423000380006180006180007380003F00001E0F7
:10424000000000000000000000000000000000006E
:10425000000000000000000000000000000000005E
:10426000000003F00007F0000C60000C00000C00E0
:10427000000600000700000F9C001DFC0018F00065
:104280001870000FFC0007DC0000000000000000B8
:10429000000000000000000000000000000000001E
:1042A0000000000000000003800003800003800085
:1042B00001000001000001000001000000000000FA
:1042C00000000000000000000000000000000000EE
:1042D00000000000000000000000000000000000DE
:1042E00000000000000000000000000000180000B6
:1042F000380000700000F00000E00000E00001C0A5
:104300000001C00001C00001C00001C00001C000E8
:1043100000E00000E00000700000700000380000C5
:104320001800000000000000000000000000000075
:10433000000000001800001C00000E00000E00002D
:1043400007000007000003800003800003800003D3
:1043500080000380000380000700000700000F00BA
:10436000000E00001C00001800000000000000000B
:1043700000000000000000000000000001800001BB
:1043800080000180001DB8001FF80007E00003C096
:104390000003C0000660000660000000000000008E
:1043A000000000000000000000000000000000000D
:1043B00000000000000000000000000000000000FD
:1043C00000000000000000000000018000018000EB
:1043D0000180000180000180003FFC003FFC0001E3
:1043E0008000018000018000018000018000000049
:1043F00000000000000000000000000000000000BD
:1044000000000000000000000000000000000000AC
:10441000000000000000000000000000000000009C
:10442000000000000000000000000000000000008C
:1044300000E00000C00001C0000180000180000316
:104440000000030000000000000000000000000069
:10445000000000000000000000000000000000005C
:104460000000000000000000001FF8001FF800001E
:10447000000000000000000000000000000000003C
:10448000000000000000000000000000000000002C
:10449000000000000000000000000000000000001C
:1044A000000000000000000000000000000000000C
:1044B00000000000000000000000000000000000FC
:1044C00003C00003C00003C00000000000000000A3
:1044D00000000000000000000000000000000018C4
:1044E000000018000038000030000070000060007C
:1044F00000600000C00000C00001800001800003D7
:1045000000000300000600000600000E00000C0082
:10451000001C00001800001800000000000000004F
:1045200000000000000000000000000003C00007C1
:10453000E0000C30000C3000181800181800181893
:10454000001818001818001818001818000C30006F
:104550000C300007E00003C0000000000000000075
:10456000000000000000000000000000000000004B
:10457000000000000080000780001F80001D8000F8
:1045800001800001800001800001800001800001A5
:1045900080000180000180000180001FF8001FF8EA
:1045A000000000000000000000000000000000000B
:1045B00000000000000000000000000007C0001F15
:1045C000F0003830003018003018000018000030BB
:1045D0000000600001C0000380000600000C000025
:1045E0001800003FF8003FF8000000000000000045
:1045F00000000000000000000000000000000000BB
:104600000000000003C0000FE0000C70000030004C
:1046100000300000600003C00003E00000700000F4
:1046200018000018000018001838001FF0000FC014
:10463000000000000000000000000000000000007A
:1046400000000000000000000000000000E0000189
:10465000E00001E0000360000660000660000C60FE
:10466000000C60001860003060003FF8003FF80068
:1046700000600003F80003F80000000000000000E4
:10468000000000000000000000000000000000002A
:10469000000000001FF0001FF000180000180000CC
:1046A0001800001BC0001FF0001C300000180000A4
:1046B00018000018000018003030003FF0000FC054
:1046C00000000000000000000000000000000000EA
:1046D00000000000000000000000000000F80003DF
:1046E000F8000700000E00000C00001800001BC0BE
:1046F000001FF0001C3000181800181800181800CF
:104700000C38000FF00003E0000000000000000083
:104710000000000000000000000000000000000099
:10472000000000001FF8001FF800181800183800DB
:1047300000300000300000700000600000600000E9
:10474000E00000C00000C00001C000018000018046
:104750000000000000000000000000000000000059
:1047600000000000000000000000000007E0000F53
:10477000F0001C38001818001818000C300007E072
:104780000007E0000C300018180018180018180076
:104790001C38000FF00007E00000000000000000DF
:1047A0000000000000000000000000000000000009
:1047B0000000000007C0000FF0001C3000181800B7
:1047C0001818001818000C38000FF80003D8000063
:1047D000180000300000700000E0001FC0001F0043
:1047E00000000000000000000000000000000000C9
:1047F00000000000000000000000000000000000B9
:10480000000000000000000003C00003C00003C05F
:104810000000000000000000000000000000000098
:1048200003C00003C00003C000000000000000003F
:104830000000000000000000000000000000000078
:104840000000000000000000000000000000000068
:1048500000F00000F00000F0000000000000000088
:10486000000000000000E00001C0000180000180A5
:104870000003000002000000000000000000000033
:104880000000000000000000000000000000000028
:104890000000001C00003C0000F00003C0000F00FE
:1048A000003C0000F000003C00000F000003C000CE
:1048B00000F000003C00001C0000000000000000B0
:1048C00000000000000000000000000000000000E8
:1048D00000000000000000000000000000000000D8
:1048E0000000007FFC007FFC000000000000007F53
:1048F000FC007FFC00000000000000000000000041
:1049000000000000000000000000000000000000A7
:104910000000000000000000000000000000000097
:1049200000007000007800001E000007800001E019
:1049300000007800001E0000780001E00007800001
:104940001E00007800007000000000000000000061
:104950000000000000000000000000000000000057
:104960000000000000000007C0000FE00018700009
:1049700018300018300000700000E00003C0000391
:104980008000030000000000000000070000070096
:104990000000000000000000000000000000000017
:1049A00000000000000000000000000003E000071D
:1049B000F0000E38000C180018780018F80019D80C
:1049C0000019980019980019980018F80018780034
:1049D0001800000C00000E180007F80003E00000AB
:1049E00000000000000000000000000000000000C7
:1049F000000000000000001F80001FC00001C00078
:104A00000360000360000630000630000C30000F29
:104A1000F8001FF800180C00300C00FC7F00FC7F31
:104A20000000000000000000000000000000000086
:104A30000000000000000000000000000000007FF7
:104A4000E0007FF000183800181800181800183817
:104A5000001FF0001FF800181C00180C00180C00B4
:104A6000180C007FF8007FF000000000000000003C
:104A70000000000000000000000000000000000036
:104A80000000000000000003EC000FFC001C1C00F4
:104A9000180C00300C0030000030000030000030F6
:104AA0000000300000180C001C1C000FF80003F080
:104AB00000000000000000000000000000000000F6
:104AC0000000000000000000000000000000007F67
:104AD000C0007FF000183800181800180C00180CDF
:104AE00000180C00180C00180C00180C0018180006
:104AF0001838007FF0007FE0000000000000000098
:104B000000000000000000000000000000000000A5
:104B1000000000000000007FF8007FF80018180077
:104B20001818001998001980001F80001F800019B4
:104B300080001998001818001818007FF8007FF8F6
:104B40000000000000000000000000000000000065
:104B50000000000000000000000000000000003F16
:104B6000FC003FFC000C0C000C0C000CCC000CC03A
:104B7000000FC0000FC0000CC0000CC0000C0000F3
:104B80000C00003FC0003FC000000000000000001B
:104B90000000000000000000000000000000000015
:104BA0000000000000000003EC000FFC001C1C00D3
:104BB000180C00300C0030000030000030FE0030D7
:104BC000FE00300C00380C001C1C000FFC0003F031
:104BD00000000000000000000000000000000000D5
:104BE0000000000000000000000000000000007E47
:104BF0007E007E7E0018180018180018180018187B
:104C0000001FF8001FF800181800181800181800E6
:104C10001818007E7E007E7E00000000000000006C
:104C20000000000000000000000000000000000084
:104C3000000000000000001FF8001FF800018000C5
:104C400001800001800001800001800001800001DE
:104C500080000180000180000180001FF8001FF823
:104C60000000000000000000000000000000000044
:104C7000000000000000000000000000000000072D
:104C8000FE0007FE00003000003000003000003061
:104C90000000300030300030300030300030300064
:104CA0003060003FE0000F800000000000000000C6
:104CB00000000000000000000000000000000000F4
:104CC000000000000000007F3E007F3E0018300022
:104CD00018600018C0001980001B80001FC0001C55
:104CE000E0001870001830001838007F1F007F1F88
:104CF00000000000000000000000000000000000B4
:104D00000000000000000000000000000000007F24
:104D100080007F80000C00000C00000C00000C00E4
:104D2000000C00000C00000C0C000C0C000C0C0023
:104D30000C0C007FFC007FFC000000000000000065
:104D40000000000000000000000000000000000063
:104D500000000000000000F00F00F81F00381C00E9
:104D60003C3C003C3C00366C00366C0033CC0033DD
:104D7000CC00318C00300C00300C00FE7F00FE7F38
:104D80000000000000000000000000000000000023
:104D9000000000000000000000000000000000789B
:104DA000FE0078FE001C18001E18001F18001B18BB
:104DB000001B980019D80018D80018F800187800BF
:104DC0001838007F18007F18000000000000000065
:104DD00000000000000000000000000000000000D3
:104DE0000000000000000003C0000FF0001C3800AD
:104DF000181800381C00300C00300C00300C00304B
:104E00000C00381C001818001C38000FF00003C0FC
:104E10000000000000000000000000000000000092
:104E20000000000000000000000000000000003F43
:104E3000F0003FF8000C1C000C0C000C0C000C0CDB
:104E4000000C18000FF8000FE0000C00000C000030
:104E50000C00003FC0003FC0000000000000000048
:104E60000000000000000000000000000000000042
:104E70000000000000000003C0000FF0001C38001C
:104E8000181800381C00300C00300C00300C0030BA
:104E90000C00381C001818001C38000FF00007C068
:104EA0000007CC000FFC000C3800000000000000E0
:104EB0000000000000000000000000000000007F73
:104EC000E0007FF000183800181800181800183893
:104ED000001FF0001FC00018E0001870001830001C
:104EE0001838007F1E007F0E000000000000000048
:104EF00000000000000000000000000000000000B2
:104F00000000000000000007D8000FF8001C380067
:104F10001818001818001E00000FC00003F0000051
:104F200078001818001818001C38001FF0001BE04B
:104F30000000000000000000000000000000000071
:104F40000000000000000000000000000000003F22
:104F5000FC003FFC00318C00318C00318C00318C26
:104F600000018000018000018000018000018000BC
:104F70000180000FF0000FF00000000000000000B2
:104F80000000000000000000000000000000000021
:104F9000000000000000007E7E007E7E00181800E9
:104FA00018180018180018180018180018180018F9
:104FB00018001818001818000C30000FF00003C07B
:104FC00000000000000000000000000000000000E1
:104FD0000000000000000000000000000000007F52
:104FE0007F007F7F00180C000C18000C18000C18B4
:104FF000000630000630000360000360000360001C
:1050000001C00001C000008000000000000000009E
:105010000000000000000000000000000000000090
:1050200000000000000000FE3F80FE3F80300600D0
:1050300030060030860019CC0019CC001B6C001B18
:105040006C001E7C000E38000E38000C18000C1886
:105050000000000000000000000000000000000050
:105060000000000000000000000000000000007EC2
:105070007E007E7E001818000C300006600003C021
:105080000001800001800003C0000660000C3000B9
:105090001818007E7E007E7E0000000000000000E8
:1050A0000000000000000000000000000000000000
:1050B000000000000000007C7E007C7E00181800CC
:1050C0000C300006600006600003C0000180000193
:1050D00080000180000180000180000FF0000FF0CF
:1050E00000000000000000000000000000000000C0
:1050F0000000000000000000000000000000001F91
:10510000F8001FF80018180018300018600018C0C8
:10511000000180000300000618000C180018180099
:105120003018003FF8003FF80000000000000000C9
:10513000000000000000000000000000000000006F
:105140000000000001F00001F0000180000180007B
:1051500001800001800001800001800001800001C9
:10516000800001800001800001800001800001803A
:105170000001800001F00001F000000000000000CC
:105180000000000000001800001800001C00000CC7
:1051900000000E00000600000600000300000300EF
:1051A0000001800001800000C00000C0000060001D
:1051B000006000007000003000003800001800009F
:1051C00018000000000000000000000000000000C7
:1051D000000000000F80000F8000018000018000AF
:1051E0000180000180000180000180000180000139
:1051F00080000180000180000180000180000180AA
:10520000000180000F80000F8000000000000000FF
:1052100000000000000000000000800001C000034A
:10522000E0000770000630000C1800180C00100495
:10523000000000000000000000000000000000006E
:10524000000000000000000000000000000000005E
:10525000000000000000000000000000000000004E
:10526000000000000000000000000000000000003E
:10527000000000000000000000000000000000002E
:10528000000000000000000000000000000000001E
:10529000000000000000000000000000000000000E
:1052A000FFFF00FFFF00000000030000038000007C
:1052B000E0000060000000000000000000000000AE
:1052C00000000000000000000000000000000000DE
:1052D00000000000000000000000000000000000CE
:1052E00000000000000000000000000000000000BE
:1052F00000000000000000000000000000000000AE
:105300000FC0001FE00000300000300007F0001F59
:10531000F0003830003030003070001FFC000FBC4F
:10532000000000000000000000000000000000007D
:10533000000000000000000000000000780000787D
:1053400000001800001800001BE0001FF8001C18E7
:1053500000180C00180C00180C00180C00180C0099
:105360001C18007FF8007BE0000000000000000037
:10537000000000000000000000000000000000002D
:10538000000000000000000000000000000000001D
:1053900003EC000FFC001C1C00380C00300C00302B
:1053A0000000300000380C001C1C000FF80003F057
:1053B00000000000000000000000000000000000ED
:1053C0000000000000000000000000000078000065
:1053D000780000180000180007D8001FF8001838DF
:1053E0000030180030180030180030180030180055
:1053F0001838001FFE0007DE00000000000000005B
:10540000000000000000000000000000000000009C
:10541000000000000000000000000000000000008C
:1054200007E0001FF800181800300C003FFC003F98
:10543000FC00300000300000180C001FFC0007F0DA
:10544000000000000000000000000000000000005C
:1054500000000000000000000000000001FC00034C
:10546000FC000600000600003FF8003FF8000600C0
:10547000000600000600000600000600000600000E
:105480000600003FF0003FF00000000000000000B8
:10549000000000000000000000000000000000000C
:1054A00000000000000000000000000000000000FC
:1054B00007DE001FFE0018380030180030180030DA
:1054C00018003018003018001838001FF80007D8EE
:1054D000000018000018000038000FF0000FC00096
:1054E00000000000000000000000000078000078CC
:1054F00000001800001800001BE0001FF0001C381E
:1055000000181800181800181800181800181800AB
:105510001818007E7E007E7E000000000000000063
:10552000000000000000000000000000000000007B
:105530000000000001800001800000000000000069
:105540001F80001F80000180000180000180000199
:1055500080000180000180000180003FFC003FFCD2
:10556000000000000000000000000000000000003B
:1055700000000000000000000000000000C000006B
:10558000C0000000000000001FF0001FF00000300D
:10559000000030000030000030000030000030001B
:1055A000003000003000003000003000003000000B
:1055B00070001FE0001F80000000000000000000DD
:1055C000000000003C00003C00000C00000C00004B
:1055D0000CF8000CF8000CC0000D80000F80000FCC
:1055E00000000F80000DC0000CE0003C7C003C7C03
:1055F00000000000000000000000000000000000AB
:105600000000000000000000000000001F80001FDC
:105610008000018000018000018000018000018085
:1056200000018000018000018000018000018000F5
:105630000180003FFC003FFC000000000000000073
:10564000000000000000000000000000000000005A
:10565000000000000000000000000000000000004A
:10566000F77800FFFC0039CC00318C00318C003120
:105670008C00318C00318C00318C00FDEF00FDEF8F
:10568000000000000000000000000000000000001A
:10569000000000000000000000000000000000000A
:1056A00000000000000000007BE0007FF0001C38DC
:1056B00000181800181800181800181800181800FA
:1056C0001818007E7E007E7E0000000000000000B2
:1056D00000000000000000000000000000000000CA
:1056E00000000000000000000000000000000000BA
:1056F00003C0000FF0001C3800381C00300C0030D4
:105700000C00300C00381C001C38000FF00003C0E7
:105710000000000000000000000000000000000089
:105720000000000000000000000000000000000079
:1057300000000000000000007BE0007FF8001C1863
:1057400000180C00180C00180C00180C00180C00A5
:105750001C18001FF8001BE00018000018000018BB
:1057600000007F00007F000000000000000000003B
:105770000000000000000000000000000000000029
:1057800007DE001FFE001838003018003018003007
:1057900018003018003018001838001FF80007D81B
:1057A0000000180000180000180000FE0000FE00B5
:1057B00000000000000000000000000000000000E9
:1057C00000000000000000003E78003EFC0007CC16
:1057D00000070000060000060000060000060000AA
:1057E0000600003FF0003FF0000000000000000055
:1057F00000000000000000000000000000000000A9
:105800000000000000000000000000000000000098
:1058100007F8000FF8001818001818001F80000F74
:10582000F00000F8001818001838001FF0001FE002
:105830000000000000000000000000000000000068
:105840000000000000000000000000000C00000C40
:1058500000000C00000C00003FF0003FF0000C00C6
:10586000000C00000C00000C00000C00000C0000FC
:105870000C1C0007FC0003F000000000000000000A
:105880000000000000000000000000000000000018
:105890000000000000000000000000000000000008
:1058A0007878007878001818001818001818001870
:1058B00018001818001818001838000FFE0007DE2E
:1058C00000000000000000000000000000000000D8
:1058D00000000000000000000000000000000000C8
:1058E00000000000000000007C3E007C3E00181814
:1058F000001818000C30000C300006600006600034
:1059000007E00003C00003C000000000000000002A
:105910000000000000000000000000000000000087
:105920000000000000000000000000000000000077
:10593000783C00783C003118003398003398001A06
:10594000B0001EF0001EF0001C60000C60000C6037
:105950000000000000000000000000000000000047
:105960000000000000000000000000000000000037
:1059700000000000000000003E7C003E7C000C3077
:105980000006600003C00001800003C00006600044
:105990000C30003E7C003E7C000000000000000057
:1059A00000000000000000000000000000000000F7
:1059B00000000000000000000000000000000000E7
:1059C0007E1F007E1F00180C000C18000C1800062B
:1059D000300006300003600003E00001C00000C09A
:1059E000000180000180000300003FC0003FC000B4
:1059F00000000000000000000000000000000000A7
:105A000000000000000000001FF8001FF800183020
:105A10000018600000C000018000030000061800AC
:105A20000C18001FF8001FF8000000000000000024
:105A30000000000000000000000000000000000066
:105A40000000000000E00001E00001800001800093
:105A500001800001800001800001800003800007B8
:105A600000000380000180000180000180000180AF
:105A70000001800001E00000E000000000000000E4
:105A80000000000000000000000000000180000194
:105A90008000018000018000018000018000018001
:105AA0000001800001800001800001800001800071
:105AB0000180000180000180000180000180000160
:105AC0008000000000000000000000000000000056
:105AD0000000000007000007800001800001800036
